:020000040800F2
:100000000000022009A80008452000084720000839
:10001000492000084B2000084D2000080000000087
:100020000000000000000000000000004F20000859
:10003000512000080000000053200008552000084F
:1000400059A8000859A8000859A8000859A800088C
:1000500059A8000859A8000859A8000859A800087C
:1000600059A8000859A8000859A8000859A800086C
:1000700059A8000859A8000859A8000859A800085C
:1000800059A800085D2000086D20000859A8000844
:1000900059A8000859A8000859A8000859A800083C
:1000A00059A8000859A8000859A8000859A800082C
:1000B00059A800087D2000088D20000859A80008D4
:1000C00059A8000859A8000859A8000859A800080C
:1000D00059A8000859A800089D20000859A8000840
:1000E00059A8000859A8000859A8000859A80008EC
:1000F00059A8000859A8000859A8000859A80008DC
:1001000059A8000859A8000859A8000859A80008CB
:1001100059A8000859A8000859A8000859A80008BB
:10012000AD20000859A8000859A8000859A80008DF
:1001300059A80008000000000000000059A80008AD
:1001400059A8000859A8000859A80008BD200008AF
:1001500059A8000859A8000859A8000859A800087B
:1001600059A8000859A8000859A8000859A800086B
:1001700059A8000859A8000859A800080000000064
:100180000000000059A80008000000000000000066
:1001900059A80008000000000000000059A800084D
:1001A00000000000000000000000000059A8000846
:1001B00059A8000859A8000859A8000859A800081B
:0401C00059A8000832
:1001D00010F8012B11F8013B012A28BF9A42F7D0F1
:1001E000D01A70470000000000000000000000006E
:1001F00001F0FF01102A2BDB10F0070F08D010F8D8
:10020000013B013A8B422DD010F0070F42B3F6D1DB
:10021000F0B441EA012141EA014122F007047FF0F4
:1002200000070023F0E80256083C85EA010586EA4B
:10023000010685FA47F5A3FA87F586FA47F6A5FA87
:1002400087F68EB9EED1F0BC01F0FF0102F0070293
:1002500032B110F8013B013A83EA010313B1F8D13E
:100260000020704701387047002D06BF354603381F
:10027000073815F0010F07D1013015F4807F02BF58
:10028000013015F4C03F0130F0BC0138704700BFA9
:10029000034613F8012B002AFBD1181A01387047C6
:1002A00081F0004102E000BF83F0004330B54FEA27
:1002B00041044FEA430594EA050F08BF90EA020F94
:1002C0001FBF54EA000C55EA020C7FEA645C7FEA27
:1002D000655C00F0E2804FEA5454D4EB5555B8BF4A
:1002E0006D420CDD2C4480EA020281EA030382EABB
:1002F000000083EA010180EA020281EA0303362D4D
:1003000088BF30BD11F0004F4FEA01314FF4801C1F
:100310004CEA113102D0404261EB410113F0004F31
:100320004FEA03334CEA133302D0524263EB4303E8
:1003300094EA050F00F0A780A4F10104D5F1200E86
:100340000DDB02FA0EFC22FA05F2801841F10001E1
:1003500003FA0EF2801843FA05F359410EE0A5F1B5
:1003600020050EF1200E012A03FA0EFC28BF4CF0E6
:10037000020C43FA05F3C01851EBE37101F000459C
:1003800007D54FF0000EDCF1000C7EEB00006EEBA9
:100390000101B1F5801F1BD3B1F5001F0CD3490833
:1003A0005FEA30004FEA3C0C04F101044FEA44528A
:1003B00012F5800F80F09A80BCF1004F08BF5FEA11
:1003C000500C50F1000041EB045141EA050130BDF1
:1003D0005FEA4C0C404141EB0101013C28BFB1F503
:1003E000801FE9D291F0000F04BF01460020B1FA4E
:1003F00081F308BF2033A3F10B03B3F120020CDA21
:100400000C3208DD02F1140CC2F10C0201FA0CF0FE
:1004100021FA02F10CE002F11402D8BFC2F1200C63
:1004200001FA02F120FA0CFCDCBF41EA0C01904019
:10043000E41AA2BF01EB0451294330BD6FEA040462
:100440001F3C1CDA0C340EDC04F11404C4F120024D
:1004500020FA04F001FA02F340EA030021FA04F35F
:1004600045EA030130BDC4F10C04C4F1200220FAB6
:1004700002F001FA04F340EA0300294630BD21FAF4
:1004800004F0294630BD94F0000F83F4801306BFBA
:1004900081F480110134013D4EE77FEA645C18BFAE
:1004A0007FEA655C29D094EA050F08BF90EA020F45
:1004B00005D054EA000C04BF1946104630BD91EA3D
:1004C000030F1EBF0021002030BD5FEA545C05D140
:1004D0004000494128BF41F0004130BD14F580047F
:1004E0003CBF01F5801130BD01F0004545F0FE41F3
:1004F00041F470014FF0000030BD7FEA645C1ABF28
:10050000194610467FEA655C1CBF0B46024650EA5E
:10051000013406BF52EA033591EA030F41F400218A
:1005200030BD00BF90F0000F04BF0021704730B510
:100530004FF4806404F132044FF000054FF00001E5
:1005400050E700BF90F0000F04BF0021704730B5A6
:100550004FF4806404F1320410F0004548BF40427B
:100560004FF000013EE700BF42004FEAE2014FEAD0
:1005700031014FEA02701FBF12F07F4393F07F4FAB
:1005800081F06051704732F07F4208BF704793F0AE
:100590007F4F04BF41F40021704730B54FF46074C1
:1005A00001F0004521F000411CE700BF50EA0102C4
:1005B00008BF704730B54FF000050AE050EA01026D
:1005C00008BF704730B511F0004502D5404261EBDD
:1005D00041014FF4806404F132045FEA915C3FF41E
:1005E000D8AE4FF003025FEADC0C18BF03325FEABB
:1005F000DC0C18BF033202EBDC02C2F1200300FA6C
:1006000003FC20FA02F001FA03FE40EA0E0021FA90
:1006100002F11444BDE600BF70B54FF0FF0C4CF47E
:10062000E06C1CEA11541DBF1CEA135594EA0C0F30
:1006300095EA0C0F00F0DEF82C4481EA030621EA6B
:100640004C5123EA4C5350EA013518BF52EA0335A6
:1006500041F4801143F4801338D0A0FB02CE4FF058
:100660000005E1FB02E506F00042E0FB03E54FF088
:100670000006E1FB03569CF0000F18BF4EF0010E80
:10068000A4F1FF04B6F5007F64F5407404D25FEA7C
:100690004E0E6D4146EB060642EAC62141EA55512F
:1006A0004FEAC52040EA5E504FEACE2EB4F1FD0C71
:1006B00088BFBCF5E06F1ED8BEF1004F08BF5FEAEF
:1006C000500E50F1000041EB045170BD06F00046A1
:1006D00046EA010140EA020081EA0301B4EB5C044E
:1006E000C2BFD4EB0C0541EA045170BD41F4801146
:1006F0004FF0000E013C00F3AB8014F1360FDEBF6B
:10070000002001F0004170BDC4F10004203C35DA46
:100710000C341BDC04F11404C4F1200500FA05F3C9
:1007200020FA04F001FA05F240EA020001F000426A
:1007300021F0004110EBD37021FA04F642EB0601E0
:100740005EEA430E08BF20EAD37070BDC4F10C040A
:10075000C4F1200500FA04F320FA05F001FA04F2CE
:1007600040EA020001F0004110EBD37041F10001BA
:100770005EEA430E08BF20EAD37070BDC4F12005C5
:1007800000FA05F24EEA020E20FA04F301FA05F22D
:1007900043EA020321FA04F001F0004121FA04F2D5
:1007A00020EA020000EBD3705EEA430E08BF20EAA5
:1007B000D37070BD94F0000F0FD101F000464000DF
:1007C00041EB010111F4801F08BF013CF7D041EA61
:1007D000060195F0000F18BF704703F00046520065
:1007E00043EB030313F4801F08BF013DF7D043EA36
:1007F0000603704794EA0C0F0CEA135518BF95EAEC
:100800000C0F0CD050EA410618BF52EA4306D1D172
:1008100081EA030101F000414FF0000070BD50EA91
:10082000410606BF1046194652EA430619D094EA1B
:100830000C0F02D150EA013613D195EA0C0F05D105
:1008400052EA03361CBF104619460AD181EA030159
:1008500001F0004141F0FE4141F470014FF0000011
:1008600070BD41F0FE4141F4780170BD70B54FF0AC
:10087000FF0C4CF4E06C1CEA11541DBF1CEA13552C
:1008800094EA0C0F95EA0C0F00F0A7F8A4EB05040E
:1008900081EA030E52EA03354FEA013100F0888005
:1008A0004FEA03334FF0805545EA131343EA1263CE
:1008B0004FEA022245EA111545EA10654FEA002683
:1008C0000EF000419D4208BF964244F1FD0404F53C
:1008D000407402D25B084FEA3202B61A65EB030598
:1008E0005B084FEA32024FF480104FF4002CB6EB55
:1008F000020E75EB030E22BFB61A754640EA0C00D5
:100900005B084FEA3202B6EB020E75EB030E22BF14
:10091000B61A754640EA5C005B084FEA3202B6EB55
:10092000020E75EB030E22BFB61A754640EA9C0014
:100930005B084FEA3202B6EB020E75EB030E22BFE4
:10094000B61A754640EADC0055EA060E18D04FEAA2
:10095000051545EA16754FEA06164FEAC30343EA42
:1009600052734FEAC2025FEA1C1CC0D111F4801F0F
:100970000BD141EA00014FF000004FF0004CB6E708
:1009800011F4801F04BF01430020B4F1FD0C88BFA7
:10099000BCF5E06F3FF6AFAEB5EB030C04BFB6EBB2
:1009A000020C5FEA500C50F1000041EB045170BDA5
:1009B0000EF0004E4EEA113114EB5C04C2BFD4EBD2
:1009C0000C0541EA045170BD41F480114FF0000E56
:1009D000013C90E645EA060E8DE60CEA135594EAD2
:1009E0000C0F08BF95EA0C0F3FF43BAF94EA0C0FD5
:1009F0000AD150EA01347FF434AF95EA0C0F7FF44A
:100A000025AF104619462CE795EA0C0F06D152EA9D
:100A100003353FF4FDAE1046194622E750EA410681
:100A200018BF52EA43067FF4C5AE50EA41047FF492
:100A30000DAF52EA43057FF4EBAE12E74FF0FF3CF7
:100A400006E000BF4FF0010C02E000BF4FF0010CC8
:100A50004DF804CD4FEA410C7FEA6C5C4FEA430C41
:100A600018BF7FEA6C5C1BD001B050EA410C0CBF90
:100A700052EA430C91EA030F02BF90EA020F0020F2
:100A8000704710F1000F91EA030F58BF994208BF59
:100A900090422CBFD8176FEAE37040F00100704716
:100AA0004FEA410C7FEA6C5C02D150EA013C07D16D
:100AB0004FEA430C7FEA6C5CD6D152EA033CD3D0B8
:100AC0005DF8040B704700BF8446104662468C46B2
:100AD0001946634600E000BF01B5FFF7B7FF0028E5
:100AE00048BF10F1000F01BD4DF808EDFFF7F4FF0E
:100AF0000CBF012000205DF808FB00BF4DF808ED99
:100B0000FFF7EAFF34BF012000205DF808FB00BFBB
:100B10004DF808EDFFF7E0FF94BF012000205DF8DD
:100B200008FB00BF4DF808EDFFF7CEFF94BF012092
:100B300000205DF808FB00BF4DF808EDFFF7C4FF8B
:100B400034BF012000205DF808FB00BF4FEA410CD4
:100B50007FEA6C5C02D150EA013C0AD14FEA430CB7
:100B60007FEA6C5C02D152EA033C02D14FF00000F4
:100B700070474FF0010070474FEA410212F5001232
:100B800015D211D56FF47873B3EB625212D94FEAD4
:100B9000C12343F0004343EA505311F0004F23FABE
:100BA00002F018BF404270474FF00000704750EA13
:100BB000013005D111F0004008BF6FF000407047D0
:100BC0004FF00000704700BF4A0011D212F500122A
:100BD00011D20DD56FF47873B3EB62520ED44FEA95
:100BE000C12343F0004343EA505323FA02F0704715
:100BF0004FF00000704750EA013002D14FF0FF3053
:100C000070474FF0000070474FEA4102B2F1E043F5
:100C100024BFB3F5001CDCF1FE5C0DD901F0004CE3
:100C20004FEAC0024CEA5070B2F1004F40EB830033
:100C300008BF20F00100704711F0804F21D113F15F
:100C40003872BCBF01F00040704741F480114FEA98
:100C50005252C2F11802C2F1200C10FA0CF320FA21
:100C600002F018BF40F001004FEAC1234FEAD3233E
:100C700003FA0CFC40EA0C0023FA02F34FEA4303A8
:100C8000CCE77FEA625307D150EA01331EBF4FF031
:100C9000FE4040F44000704701F0004040F0FE404C
:100CA00040F40000704700BF53B94AB9002908BF9B
:100CB00000281CBF4FF0FF314FF0FF3000F00CB8A0
:100CC000ADF1080C6DE904CE14F072FCDDF804E01F
:100CD000DDE9022304B07047704700BF0348044BAE
:100CE000834202D0034B03B1184770476C180020B1
:100CF0006C180020000000000548064B1B1AD90F95
:100D000001EBA301491002D0034B03B11847704710
:100D10006C1800206C1800200000000010B5064C74
:100D2000237843B9FFF7DAFF044B13B10448AFF35C
:100D300000800123237010BD6C180020000000000B
:100D40006C58010808B5054B1BB105490548AFF3C0
:100D50000080BDE80840FFF7CFBF00BF00000000E3
:100D6000701800206C58010884B000220092154BC6
:100D7000196B41F004011963196B01F00401009132
:100D800000990192196B41F080011963196B01F010
:100D90008001019101990292196B41F001011963DF
:100DA000196B01F001010291029903921A6B42F052
:100DB00002021A631B6B03F002030393039B04B04C
:100DC000704700BF0038024010B582B00024009484
:100DD000124B1A6B42F480021A631A6B02F48002FF
:100DE0000092009A01941A6B42F400121A631B6B72
:100DF00003F400130193019B22462146112002F0C7
:100E0000F7FD112002F004FE22462146382002F0B0
:100E1000EFFD382002F0FCFD02B010BD00380240AA
:100E20000268084B9A4200D0704710B4064C074B3A
:100E30000FCB84E80F00064B01221A705DF8044BBB
:100E4000704700BF00200140501F0020601F00209D
:100E50004D1F00200268044B9A4200D07047034B9C
:100E600001221A70FAE700BF000800404C1F002062
:100E700072B6FEE700B587B0002302930393049394
:100E80000593009301931348134A02604F22426076
:100E900083604022C2600361836102F0DDFF98B984
:100EA0004FF48053029302A90A4803F00EF868B980
:100EB00020230093002301936946064803F084F839
:100EC00030B907B05DF804FBFFF7D2FFFFF7D0FFA2
:100ED000FFF7CEFF5C1E00200004004000B585B087
:100EE000002300930193029303932648264A02604D
:100EF0004FF480324260836001220261037680F801
:100F000020304FF08051C1624FF000618162C360B8
:100F10000421C16180F83020436103F07FFD38BBBC
:100F20000A23009301230193032302936946154882
:100F300003F05CFFF0B90B23009302230193694691
:100F4000104803F053FFB8B908230093032301931B
:100F500069460C4803F04AFF80B9042300930193CB
:100F60006946084803F042FF50B905B05DF804FB3C
:100F7000FFF77EFFFFF77CFFFFF77AFFFFF778FFB1
:100F8000FFF776FF041F00200020014000B587B066
:100F90000023029303930493059300930193144851
:100FA000144A02605422426083604FF4FA72C260B5
:100FB0000361836102F050FF98B94FF480530293AC
:100FC00002A90B4802F081FF68B920230093002397
:100FD00001936946064802F0F7FF30B907B05DF8A3
:100FE00004FBFFF745FFFFF743FFFFF741FF00BF9B
:100FF000141E00200008004008B50B484FF0A04325
:101000000360062303710222C271002383714272BE
:101010008372C37203738373C37305F0D3F800B98B
:1010200008BDFFF725FF00BF8818002000B595B068
:101030003422002107A811F00DFE00230293039330
:101040000493059306930093214A116C41F080515B
:101050001164126C02F080520092009A01931D4BB1
:101060001A6842F440421A601B6803F4404301933B
:10107000019B012307934FF48033089302230D93C0
:101080004FF480020E9208220F924FF4A872109231
:10109000119307221292139307A801F07DFD98B9CE
:1010A0000F23029302230393002304934FF4A053CE
:1010B00005934FF480530693052102A801F094F99B
:1010C00020B915B05DF804FBFFF7D2FEFFF7D0FEA4
:1010D000003802400070004008B50A480A4B03601F
:1010E0004FF4E133436000238360C36003610C224B
:1010F00042618361C36103F0F2F800B908BDFFF7F4
:10110000B7FE00BFCC1D00200044004000B583B0F6
:1011100000230193254B1A6C42F080521A641B6C19
:1011200003F080530193019B02F000FC204B5A6DA9
:10113000204B9A4206D11E4B00225A651E4B5B681B
:101140009847FEE706F028FE02F0A0FCFFF76EFFCE
:10115000FFF70AFEFFF738FEFFF7BEFFFFF78AFE34
:10116000FFF7BCFEFFF712FFFFF746FF03F0B6FBE9
:1011700004F0A0FD07F05AFB04221049104803F0C8
:1011800079FC08B1FFF774FE0E4802F001FD0E482D
:1011900002F0FEFC62B60D4B1B78002BFBD00C4816
:1011A00007F04CFB094B00221A70F4E700380240AC
:1011B00000280040EFBEADDE0000FF1F601F0020D2
:1011C000041F00205C1E0020141E00204D1F002064
:1011D000501F002010B503460C4A0D490D48006809
:1011E00040B10C4800680344521A934206D8094A99
:1011F000136010BD0748084C0460F2E711F098FD39
:101200000C2303604FF0FF30F3E700BF0000022023
:1012100000080000701F0020D068012001207047E6
:1012200008B511F085FD162303604FF0FF3008BDAF
:1012300008B54FF0FF31FFF7F3FFFEE770B50C463E
:101240001646002506E0AFF30080214601F8010BA9
:1012500001350C46B542F6DB304670BD4FF0FF302D
:1012600070474FF400534B600020704701207047D7
:1012700000207047B0B100B585B086460A4B02AA7F
:1012800003F1200103C982E80300EC46283393E808
:1012900003008CE803006146704609F0F3FB05B0DB
:1012A0005DF804FB00207047A058010838B50446DB
:1012B0000A460121314809F03DFB0546002856D079
:1012C0002F4A136843F0804313602C4B1B689360D4
:1012D000D3602C4A116841F08041116003F10C0188
:1012E0009160D160284A116841F08041116003F19A
:1012F00054019160D160254A116841F0804111602C
:1013000003F1DC01916003F19C01D160204A116876
:1013100041F08041116003F61C119160D1601D4ABB
:10132000116841F08041116003F6DC11916003F611
:101330009C11D160184A116841F08041116003F698
:101340003C219160D160154A116841F080411160E3
:1013500003F654219160D160114A116841F0804137
:10136000116003F6D4239360D360284638BD12225F
:101370003021204609F0B4FBF7E700BF34200020FD
:101380003409002024090020140900200409002049
:10139000F4080020E4080020D4080020C40800203D
:1013A000B408002038B504460A4601211B4809F05C
:1013B00015FB054600282AD0184B1B68184A936075
:1013C000D36003F50371174A9160D16003F514717E
:1013D000154A9160D16003F5747214498A60CA603D
:1013E00013498A60CA6013498B60CB6012498A60D6
:1013F000CA60124A9360D36003F18001104A916081
:10140000D16098330F4A9360D360284638BD1322C9
:101410003021204609F064FBF7E700BF38200020A8
:10142000D4090020C4090020B4090020A409002028
:101430009409002084090020740900206409002018
:10144000540900204409002008B509F03DFB08BDFF
:1014500000B583B000230193052300930123034AC1
:1014600009F02EFC03B05DF804FB00BF580000201B
:1014700008B510B109F03AFB08BD0248024B036001
:10148000F8E700BF580000200001C0A108B510B166
:1014900009F0A2FB08BD0248024B0360F8E700BF59
:1014A000580000200001C0A1F8B506460D4609F01D
:1014B00049FC78B107462946FFF7F8FE044629465D
:1014C0003846FFF76FFF0440E4B2304609F008FDEC
:1014D0002040F8BD0020FCE72DE9F0418EB08046A9
:1014E0000E4615460021FFF7B3FF074610F0FF0F29
:1014F00002D00EB0BDE8F0816846FFF7BBFE08B130
:1015000000240CE0D8F80000FFF79EFFF1E756F842
:101510002420214603A809F0FDF90134A4B2D6B174
:10152000BDF80E30A342F2D8002407E055F824207D
:10153000214601A809F0EEF90134A4B21DB1BDF8AD
:101540000630A342F2D86946D8F80000FFF7ACFF96
:1015500018B13846CDE70024F0E7D8F80000FFF7CF
:1015600073FF0746F5E708B509F0EAFC08BD00007F
:1015700030B585B000F02CFA144D00246C60642066
:1015800002F0B0FA6868124BA3FB00306A464009CB
:10159000214600F0F7F8039A0199029B642000FBB2
:1015A00001310C4800F0DCF86A464FF0FF300021B2
:1015B00000F0E8F8019A029B4FF47A7101FB0233C4
:1015C000054A136000F004FA05B030BD001000E0D9
:1015D0001F85EB51E05801083C20002010B50C4C51
:1015E00004F5537000F0BCF80123072204F555718F
:1015F00004F5597000F0B4F804F55D7000F0B0F82F
:1016000000F068F900F0D2F9FFF7B2FF002010BD3A
:10161000D0580108B0F58B6F30D840F21343984290
:1016200040D3A0F21340452826D8DFE800F0352546
:1016300025252525232525252525252533252D2546
:101640002525252525252525252525252F25393D14
:10165000252525252525252525252525312525252E
:10166000252525252525252525252525252525252A
:10167000252525370E4870470E48704740F26343D2
:10168000984213D10C4870470C4870470C4870477B
:101690000C4870470C4870470C4870470C4870471E
:1016A0000C487047034870470B4870470148704723
:1016B0000C5E01088C5D0108F05D0108A05D010869
:1016C000B05D0108C05D0108CC5D0108D85D01086E
:1016D000E45D0108FC5D0108945D010808B54FF068
:1016E000FF338AB20146034802F029FEB0FA80F0C7
:1016F000400908BDCC1D002000B583B08DF807104F
:10170000054B1B7813B903B05DF804FB01210DF103
:101710000700FFF7E3FFF6E7E409002010B5141E09
:1017200004DB0D4B1B7863B9204610BD0128F8D0AF
:101730000228F6D011F0FCFA092303604FF0FF34C1
:10174000F2E74FF0FF33A2B2044802F0F8FD0028A0
:10175000EAD00024E8E700BFE4090020CC1D002007
:101760000FB400B583B004AB53F8042B01930021F0
:10177000034800F015FB03B05DF804EB04B07047BC
:10178000F9160008002A6BD02DE9F04F83B004460B
:101790000E46934600F0D8FE81464FF00008024600
:1017A000434620463146FFF77FFA824607467301DB
:1017B00043EAD4636501B5EB040C63EB06039B00BD
:1017C00043EA9C734FEA8C0C1CEB040C46EB0301C0
:1017D000C9004A4643464FEACC0041EA5C71FFF734
:1017E00063FA0190730143EAD4632D1B63EB060394
:1017F0005B0243EAD5536D022D1946EB03039901B1
:1018000041EA9561A801401B61EB030100194A46BA
:10181000434646EB0101FFF747FA4FEA4A13B3EBA1
:101820000A020AEB82020199A1EBC202C2EB421149
:1018300002EB8101B3EB0A030AEB4323C3EB8313EF
:10184000DB1903EBC103C01ACBF80090CBF804A05E
:10185000CBF80820CBF80C00404603B0BDE8F08F71
:101860004FF0FF307047000082B00F4B1B680193B0
:10187000019B03F00F0343F08070019A12F4807F04
:1018800001D043F00120019B13F4007F01D040F40C
:101890000070019B13F4806F01D040F4806040F42D
:1018A000803002B0704700BF003C024088B110B5E4
:1018B000044600F049FE206000F046FE6060FFF73D
:1018C000D3FFA06002F02CF9E06002F023F9206160
:1018D00010BD704730B589B02E4C012303220D2175
:1018E00004F58270FFF73CFF03A8FFF7DFFF04F564
:1018F0009270FFF735FF069DA8B2FFF78BFE0246F8
:10190000079B294604F5A270FFF72AFF04F5BC7374
:1019100004F5C072042104F5C470FFF721FF02F042
:10192000F5F8014604F5D470FFF71AFF039B1A4D32
:1019300085FB0321DB17C3EBA14104F5E270FFF740
:101940000FFF049B85FB0321DB17C3EBA14104F5CB
:10195000F070FFF705FF114B196811F4807F12D06A
:1019600004F1F40211F4007F0FD00D4B11F4806FDD
:101970000DD00B4801F00F04019400900948FFF7C7
:10198000EFFE09B030BD084AECE7074BEEE706482A
:10199000F0E700BF8C5D010883DE1B43003C024082
:1019A000805E0108885F0108885E010882B000231C
:1019B0000193064B1A6B42F480521A631B6B03F4BB
:1019C00080530193019B02B0704700BF0038024072
:1019D000074AD2F8FC3043F08073C2F8FC30054B64
:1019E00000225A601A6842F001021A60704700BF74
:1019F00000ED00E0001000E0F0B591B014460023C7
:101A00008DF83F30936813F0040F0BD0002901DBF1
:101A1000002508E0404261EB41011368013B13607F
:101A20002D2500E000254FF0000E3E2238E0612316
:101A300047E00CF1300C26E00026431846D2334430
:101A40004A4EA6FB037C2CF0030707EB9C07DB1B2D
:101A5000C31A61F100074FF0CC3103FB01F106FB23
:101A60000711A3FB063631445B0843EAC17303EB5D
:101A7000830CA0EB4C0C5FFA8CFC0CF1300C5FFA81
:101A80008CFC18464908531E02F140066E4406F8C5
:101A900040CC0EF1010650EA010719D0B6461A46AD
:101AA000A36813F0100FC7D000F00F0C000940EA34
:101AB00001700909BCF1090FBBD913F0080FB6D0AA
:101AC000412363440A3B5FFA83FCDCE70126B6E767
:101AD0009DB1A16811F0010F0FD140336B4403F8A1
:101AE000405C0EF10206931E07E003F140026A44D7
:101AF000202102F8401C013B01362168B1420EDD75
:101B0000A26812F0020F0AD112F0010FEDD003F11A
:101B100040026A44302102F8401C013BECE745B129
:101B2000B14206DB03F140026A4402F8405C013630
:101B3000013B5D1C0027BE4207DDE3687A191DF8F2
:101B40000210206998470137F5E7A36813F0020FE8
:101B500007D1304611B0F0BDE368202120699847D5
:101B600001362368B342F7DCF3E700BFCDCCCCCC21
:101B70002DE9F04790B057EC106B82464FF000080B
:101B80000024664D09E00022654B20462946FEF7F9
:101B900043FD04460D4608F10108DAF804304345D8
:101BA000F1DC0022002330463946FEF7A7FFB0B92A
:101BB000B046B94622462B4600205A49FEF756FE4B
:101BC00042464B46FEF772FB02460B46204629462C
:101BD000FEF722FD13F0CEFC00253F2414E0B046B2
:101BE00007F10049E6E74FF0010E13E0023C0EF169
:101BF00040030DEB030E2E230EF8403C0235BCF1E2
:101C00000A0F72F100023FD384460A464FF0000EDD
:101C10004318E8D27344DFF810E1AEFB038929F0E2
:101C2000030808EB9908A3EB0803C31A61F100004D
:101C30004FF0CC3103FB01F10EFB0011A3FB0E3E74
:101C400071445B0843EAC1731846490803EB8303F8
:101C5000ACEB4303DBB2303304F1FF3E04F1400848
:101C6000E84408F8403C05F10108DAF8043043453F
:101C7000BCD045467446C2E704F140036B443022B1
:101C800003F8402C0135013CDAF80430AB42F3D8BC
:101C900014D0DAF804300133AB4218D0002200230C
:101CA00030463946FEF72AFF10B304F140036B4477
:101CB0002D2203F8402C0135013C19E004F14003CA
:101CC0006B442E2203F8402C0135013CE1E704F17E
:101CD00040036B44302203F8402C0135013CDDE722
:101CE00004F140036B44202203F8402C0135013CF1
:101CF000DAF80030AB42F3D80134002608E0DAF815
:101D00000C3032191DF80210DAF81000984701362D
:101D1000AE42F4D3284610B0BDE8F0870000F03F93
:101D2000000024400000E03FCDCCCCCC2DE9F041B8
:101D300004460D46FEF7ACFA80466B681BB198422C
:101D4000A8BF18468046AE6816F0020602D00026EC
:101D5000002711E047462B68BB42F9DDEB682021E4
:101D60002869984701360137F5E7EB6814F8011B3D
:101D70002869984701360137B845F6DCAB6813F09F
:101D8000020F02D13046BDE8F0812B684345F9DDF2
:101D9000EB68202128699847013608F10108F4E72B
:101DA0002DE9F04F89B080460F4614460193002676
:101DB000354602E03846C047013514F8011B0029BA
:101DC00000F03981002E40F036810A29F2D0252911
:101DD00003D03846C0470135EFE700220392049252
:101DE0000592CDF818800797B3463346B246914620
:101DF00028E0002963D101239A4623E06C295ED1B3
:101E000009F101091EE0039A32B9049820B9059A34
:101E100042F00102059215E0BBF1000F07D0049AD1
:101E200002EB8202303901EB420104910AE002EB3D
:101E30008202303901EB4201039103E0059A42F03E
:101E400002020592002B40F0E38014F8011B3929AF
:101E5000D4D82D29CDD3A1F12D020C2A2FD801A041
:101E600050F822F03D1E000805200008BF1E0008A3
:101E7000071E0008991E0008991E0008991E0008F8
:101E8000991E0008991E0008991E0008991E000856
:101E9000991E0008991E0008BBF1000F07D0049A94
:101EA00002EB8202303901EB42010491CAE7039A46
:101EB00002EB8202303901EB42010391C2E7A1F14A
:101EC0002503532B00F2A180DFE803F02A9F9F9F98
:101ED0009F9F9F9F9F9F9F9F9F9F9F9F9F9F9F9F12
:101EE0009F9F9F9F9F9F9F9F9F9F9F9F9F899F9F18
:101EF0009F9F9F9F9F9F9F9F9F9F9F9F9F9F9F4B46
:101F00009F9F9F9F9F9F9F9F9F9F2F5E9F899F9FA8
:101F10005E9F9F9F9F9F9F459F9F389F6E9F9F4F54
:101F20003846C047013501238CE7019B1A1D0192F9
:101F300019783846C0470135012383E7019B1A1DF4
:101F40000192186828B103A9FFF7F0FE05440123A8
:101F500078E73B48F7E7059B43F001030593082327
:101F60000393059B43F008030593059B43F010037F
:101F70000593019B1A1D019203AA18680021FFF71F
:101F80003BFD054401235DE7059B43F004030593F6
:101F9000752909D0B9F1010F1ADD019B1A1D0192B3
:101FA00019680846C91707E0B9F1010F0ADD019B5E
:101FB0001A1D01921868002103AAFFF71DFD0544B0
:101FC00001233FE7019B1A1D019218680021F3E7E6
:101FD000019B1A1D019219680846C917ECE7019B7D
:101FE000073323F0070303F10802019293ED000B7E
:101FF000049B0BB90623049303A8FFF7B9FD05441E
:1020000001231FE74FF0010B1CE701239A4619E754
:10201000BAF1000F0DD0019B043301933C213846E7
:10202000C04721213846C0473E213846C0470335C6
:10203000B2465646C1E6284609B0BDE8F08F00BF5B
:10204000786B0108FEE7FEE7FEE7FEE7FEE7704774
:102050007047704708B501F033FD08BD08B5024868
:1020600001F076FB08BD00BF6C1D002008B50248DA
:1020700002F0D6FD08BD00BF041F002008B50248CD
:1020800001F0CEFD08BD00BF5C1E002008B502486F
:1020900001F0C6FD08BD00BF141E002008B50248AF
:1020A00002F0DAFA08BD00BFCC1D002008B50248D6
:1020B00001F04EFB08BD00BFA41E002008B5024879
:1020C00004F06CFB08BD00BF8818002082B000211E
:1020D00000910B4B5A6C42F480425A645A6C02F4E1
:1020E00080420092009A01911A6C42F080521A6468
:1020F0001B6C03F080530193019B02B0704700BF3B
:102100000038024070B58AB0002305930693079308
:1021100008930993026803F1804303F590339A42D0
:1021200001D00AB070BD04460025019503F58C333B
:102130005A6C42F480725A645A6C02F480720192B2
:10214000019A02951A6B42F004021A631A6B02F0AC
:1021500004020292029A03951A6B42F001021A637A
:102160001A6B02F001020392039A04951A6B42F073
:1021700002021A631B6B03F002030493049B032601
:102180000596069605A91D4801F07EF810230593D3
:102190000696079505A91A4801F076F801230593DC
:1021A0000696079505A9174801F06EF81648174BD3
:1021B000036045608560C5604FF4806303614FF440
:1021C000805343614FF4804383614FF48073C36154
:1021D0004FF400330362456201F0C2F958B90A4B6B
:1021E000A3639C6300221146122001F001FC12201F
:1021F00001F00EFC95E7FEF73BFEF0E70008024019
:102200000000024000040240A41E002010640240AE
:1022100000B583B00368184A934205D0174A934229
:1022200016D003B05DF804FB00210091144B1A6C2A
:1022300042F002021A641B6C03F002030093009B3D
:102240000A461D2001F0D4FB1D2001F0E1FBE8E768
:10225000002201920A4B196C41F0040119641B6CB5
:1022600003F004030193019B02211E2001F0C0FB37
:102270001E2001F0CDFBD4E7000400400008004020
:102280000038024030B589B00023039304930593CE
:10229000069307930268264B9A4201D009B030BDDD
:1022A00004460025019503F5FA331A6C42F4003216
:1022B0001A641A6C02F400320192019A02951A6BA8
:1022C00042F001021A631B6B03F001030293029BAD
:1022D0000C230393022304930323069307230793FA
:1022E00003A9144800F0D0FF1348144B03604FF0CB
:1022F0000063436040238360C5604FF480630361E3
:1023000045618561C5610562456201F029F958B9E9
:10231000094BA3639C6300220321262001F068FB84
:10232000262001F075FBB9E7FEF7A2FDF0E700BF3C
:1023300000440040000002406C1D0020A0600240EC
:1023400030B59FB00446002119911A911B911C9140
:102350001D915C2202A810F07DFC2368B3F1A04F10
:1023600001D01FB030BD4FF48073029302A800F07B
:1023700011F9002830D100250095194C236B43F04A
:1023800001032363236B03F001030093009B4FF4CD
:10239000C053199302231A931B9503231C930A23FA
:1023A0001D9319A90F4800F06FFF636B43F0800382
:1023B00063630195636C43F480436364636C03F46B
:1023C00080430193019B2A462946432001F010FBDC
:1023D000432001F01DFBC4E7FEF74AFDCBE700BF39
:1023E0000038024000000240002800F09B8070B5D9
:1023F0000D4604464F4B1B6803F00F038B4208D277
:10240000CBB24C4A1370136803F00F038B4240F0B9
:102410008B80236813F0020F17D013F0040F04D041
:10242000454A936843F4E0539360236813F0080F20
:1024300004D0414A936843F4604393603E4A9368F2
:1024400023F0F003A1680B439360236813F0010F9E
:1024500032D06368012B21D09A1E012A25D9364A31
:10246000126812F0020F61D033498A6822F0030229
:1024700013438B6001F030FB06462F4B9B6803F043
:102480000C036268B3EB820F16D001F025FB801BB2
:1024900041F288339842F0D9032042E0264A12687C
:1024A00012F4003FE0D101203BE0234A126812F011
:1024B000007FD9D1012034E01E4B1B6803F00F03CD
:1024C000AB4207D9EAB21B4B1A701B6803F00F032B
:1024D000AB422DD1236813F0040F06D0164A93683F
:1024E00023F4E053E1680B439360236813F0080F73
:1024F00007D0114A936823F46043216943EAC1037A
:10250000936000F081FA0C4B9B68C3F303130B4AF2
:10251000D35CD8400A4B18600A4B186801F090FA57
:10252000002070BD012070470120FAE70120F8E784
:102530000120F6E7003C0240003802401471010817
:10254000EC090020E8090020014B1868704700BF23
:10255000EC09002008B5FFF7F7FF044B9B68C3F3B5
:102560008223034AD35CD84008BD00BF0038024034
:102570000C71010808B5FFF7E7FF044B9B68C3F334
:102580004233034AD35CD84008BD00BF0038024044
:102590000C710108F0B583B00446066816F0010618
:1025A0000DD0964AD2F88C3023F0C063816B0B4378
:1025B000C2F88C30836B002B00F09B8000262368D0
:1025C00013F0020F0BD08D4AD2F88C3023F0C05399
:1025D000E16B0B43C2F88C30E36B03B9012625682D
:1025E00015F004050FD0854AD2F88C3023F440133F
:1025F000216B0B43C2F88C30236BB3F5801F7AD06C
:10260000002B7AD00025236813F0080F0ED07B4AE8
:10261000D2F88C3023F44003616B0B43C2F88C304A
:10262000636BB3F5800F6AD003B90125236813F0FB
:10263000200F66D1236813F0100F04D094F85820AF
:102640006F4BC3F8E021236813F0800F08D06B4A6A
:10265000D2F8943023F44003E16C0B43C2F8943079
:10266000236813F0400F08D0644AD2F8943023F066
:102670008063A16C0B43C2F89430236813F4807F0D
:102680000DD05E4AD2F8943023F00063616D0B43A5
:10269000C2F89430636DB3F1006F00F09B80236843
:1026A00013F4007F08D0554AD2F8943023F08053B9
:1026B000616C0B43C2F89430236813F4806F0CD024
:1026C0004E4AD2F8943023F00053216D0B43C2F8E8
:1026D0009430236DB3F1005F7ED0002E7CD123684F
:1026E000B3F5006F78D0012D00F02581002003B0F4
:1026F000F0BD012663E7012682E7012583E7012675
:1027000092E7002301933D4B1A6C42F080521A6409
:102710001B6C03F080530193019B3A4A136843F406
:102720008073136001F0D8F90746364B1B6813F429
:10273000807F06D101F0D0F9C01B0228F5D9032013
:10274000D5E72E4B1B6F13F4407314D0226C02F4A8
:1027500040729A420FD0294B1A6F22F440722A49D4
:102760000120C1F8400E0020C1F8400E1A671B6F0F
:1027700013F0010F12D1236C03F44072B2F5407FC5
:102780001DD01E4A936823F4F81393601B490B6F06
:10279000226CC2F30B0213430B674BE701F09CF969
:1027A0000746164B1B6F13F0020FE4D101F094F9AA
:1027B000C01B41F288339842F3D9032097E70F49B1
:1027C0008A6822F4F81223F0704323F44073134311
:1027D0008B60DBE7012562E70B4B00229A6601F074
:1027E0007BF90646054B1B6813F0006F0ED001F015
:1027F00073F9801B0228F5D9032078E700380240DE
:10280000001047420070004000004742236813F068
:10281000010F01D0A26B22B113F0020F15D0E36BB0
:102820009BB9774AD2F88400D2F884106368A6680E
:1028300043EA861300F44030034301F070610B4318
:10284000616943EA0173C2F88430236813F0040F0E
:1028500003D0226BB2F5801F06D013F0080F20D0F2
:10286000636BB3F5800F1CD1654AD2F88400D2F8AF
:1028700084106368A66843EA861300F4403003437B
:10288000206943EA006301F0E0410B43C2F8843061
:10289000D2F88C3023F01F03A16A01390B43C2F830
:1028A0008C30236813F4806F03D0236DB3F1005F85
:1028B00028D0236813F4006F11D06368A26843EA3C
:1028C0008213E2685208013A43EA0243226943EA6A
:1028D0000263626943EA0273494AC2F88430494B91
:1028E00001229A6601F0F8F80646454B1B6813F082
:1028F000006F7FF4F8AE01F0EFF8801B0228F4D9E6
:102900000320F4E63E48D0F88420C2F301420132AD
:10291000D0F884606368A16843EA8113E1684908DC
:10292000013943EA014343EA426306F0E0421343BC
:10293000C0F88430BDE7334B00221A6701F0CCF8B1
:1029400005462F4B1B6813F0005F06D001F0C4F85A
:10295000401B0228F5D90320C9E6236813F0040FB1
:1029600001D0226B22B113F0080F1AD0636BC3B9E8
:10297000234AD2F88810A369E06943EA801301F47E
:1029800040310B43616A43EA0163C2F88830D2F8F0
:102990008C3023F4F853E16A013943EA0123C2F889
:1029A0008C30236813F4807F03D0636DB3F1006F24
:1029B00011D0144B01221A6701F08EF80446104B17
:1029C0001B6813F0005F18D101F086F8001B022885
:1029D000F5D903208BE60A48D0F88810A369E2698C
:1029E00043EA8213226A5208013A43EA024301F0A1
:1029F00070621343C0F88830DBE7002077E600BF41
:102A0000003802400000474208B5604B9B6803F065
:102A10000C03082B06D00C2B5ED0042B40F0B480A6
:102A20005B4833E0594B5A6802F03F025B6813F48D
:102A3000800F2CD0554B5868C0F388104FEA401CCB
:102A4000BCEB000C6EEB0E0E4FEA8E1343EA9C6358
:102A50004FEA8C11B1EB0C0163EB0E03DB0043EA90
:102A60005173C90011EB000C43F10003590200231C
:102A70004FEA4C2041EADC51FEF716F9434B5B6804
:102A8000C3F3014301335B00B0FBF3F008BD3F4BE0
:102A90005868C0F388104FEA401CBCEB000C6EEB8A
:102AA0000E0E4FEA8E1343EA9C634FEA8C11B1EB92
:102AB0000C0163EB0E03DB0043EA5173C90011EB19
:102AC000000C43F10003990200234FEA8C2041EAF5
:102AD0009C51FEF7E9F8D1E72C4B5A6802F03F020F
:102AE0005B6813F4800F2AD0284B5868C0F3881015
:102AF0004FEA401CBCEB000C6EEB0E0E4FEA8E133F
:102B000043EA9C634FEA8C11B1EB0C0163EB0E03BB
:102B1000DB0043EA5173C90011EB000C43F10003E1
:102B2000590200234FEA4C2041EADC51FEF7BCF881
:102B3000164B5B68C3F30273B0FBF3F0A6E7134BCD
:102B40005868C0F388104FEA401CBCEB000C6EEBD9
:102B50000E0E4FEA8E1343EA9C634FEA8C11B1EBE1
:102B60000C0163EB0E03DB0043EA5173C90011EB68
:102B7000000C43F10003990200234FEA8C2041EA44
:102B80009C51FEF791F8D3E702487FE700380240F6
:102B900000127A000024F400002800F0018270B5D1
:102BA00082B00446036813F0010F41D0994B9B6833
:102BB00003F00C03042B32D0964B9B6803F00C03FC
:102BC000082B27D0934B9B6803F00C030C2B59D098
:102BD0006368B3F5803F5BD0B3F5A02F5ED08D4B1B
:102BE0001A6822F480321A601A6822F480221A606D
:102BF0006368002B5CD000F06FFF0546854B1B68B7
:102C000013F4003F14D100F067FF401B6428F5D98E
:102C10000320CCE17F4B5B6813F4800FD2D07D4B57
:102C20001B6813F4003F03D06368002B00F0BA81E7
:102C3000236813F0020F60D0764B9B6813F00C0FE3
:102C40004AD0744B9B6803F00C03082B3FD0714BA8
:102C50009B6803F00C030C2B69D0E368002B75D044
:102C60006D4B01221A6000F037FF0546694B1B6867
:102C700013F0020F61D100F02FFF401B0228F5D99D
:102C8000032094E1634B5B6813F4800FA0D0C6E788
:102C9000604A136843F480331360A9E75D4B1A68F8
:102CA00042F480221A601A6842F480321A609FE768
:102CB00000F012FF0546574B1B6813F4003FB7D0D6
:102CC00000F00AFF401B6428F5D903206FE1514B47
:102CD0005B6813F4800FBAD14E4B1B6813F0020FE0
:102CE00003D0E368012B40F05F814A4A136823F068
:102CF000F803216943EAC1031360236813F0080F46
:102D000049D06369002B33D0434B0122C3F8802E96
:102D100000F0E2FE05463F4B5B6F13F0020F3AD125
:102D200000F0DAFE401B0228F5D903203FE1394BC1
:102D30005B6813F4800F90D1CEE7364A136823F016
:102D4000F803216943EAC1031360D6E7324B00223E
:102D50001A6000F0C1FE05462E4B1B6813F0020FEF
:102D6000CBD000F0B9FE401B0228F5D903201EE1AC
:102D7000294B0022C3F8802E00F0AEFE0546254BFD
:102D80005B6F13F0020F06D000F0A6FE401B022876
:102D9000F5D903200BE1236813F0040F76D01D4B07
:102DA0001B6C13F0805F33D100230193194B1A6C15
:102DB00042F080521A641B6C03F080530193019B14
:102DC0000125164B1B6813F4807F29D0A368012BC3
:102DD0003AD0052B3ED00F4B1A6F22F001021A6732
:102DE0001A6F22F004021A67A368002B3CD000F08F
:102DF00073FE0646074B1B6F13F0020F45D100F020
:102E00006BFE801B41F288339842F3D90320CEE059
:102E10000025D6E70038024000004742007000401D
:102E20006B4A136843F48073136000F055FE064646
:102E3000674B1B6813F4807FC8D100F04DFE801BE8
:102E40000228F5D90320B2E0624A136F43F0010370
:102E50001367C9E75F4B1A6F42F004021A671A6FD3
:102E600042F001021A67BFE700F036FE0646594BF2
:102E70001B6F13F0020F08D000F02EFE801B41F2F2
:102E800088339842F3D9032091E0EDB9A369002B70
:102E900000F08C804F4A926802F00C02082A54D04D
:102EA000022B17D04C4B00221A6600F015FE044688
:102EB000484B1B6813F0007F45D000F00DFE001B4F
:102EC0000228F5D9032072E0424A136C23F08053A4
:102ED0001364DBE7404B00221A6600F0FDFD054657
:102EE0003C4B1B6813F0007F06D000F0F5FD401B43
:102EF0000228F5D903205AE0E369226A1343626A83
:102F000043EA8213A26A5208013A43EA0243E26AA0
:102F100043EA0263226B43EA02732E4A53602E4B4C
:102F200001221A6600F0D8FD04462A4B1B6813F0F4
:102F3000007F06D100F0D0FD001B0228F5D9032048
:102F400035E0002033E0002031E0012B31D0214B6F
:102F50005B6803F48001E26991422CD103F03F02E7
:102F6000216A8A4229D1616A47F6C0721A40B2EBDF
:102F7000811F24D103F44031A26A5208013AB1EB17
:102F8000024F1ED103F07062E16AB2EB016F1AD1F9
:102F900003F0E043226BB3EB027F16D1002006E082
:102FA00001207047012002E0012000E0002002B073
:102FB00070BD0120FBE70120F9E70120F7E70120C0
:102FC000F5E70120F3E70120F1E70120EFE700BF7B
:102FD00000700040003802400000474210B40A4927
:102FE0000C6924F440740C610C6944F440740C6165
:102FF0000C6944F001040C610260BFF36F8F436001
:103000005DF8044B704700BF003C0240074B1A6953
:1030100022F440721A611A6942F400721A611A6944
:1030200042F001021A610160704700BF003C02409B
:10303000074B1A6922F440721A611A6942F48072CD
:103040001A611A6942F001021A610180704700BFDB
:10305000003C0240064B1A6922F440721A611A6958
:103060001A611A6942F001021A610170704700BFCB
:10307000003C0240274BDB6813F0100F07D0264AB4
:10308000D36943F01003D361224B1022DA60214B45
:10309000DB6813F0200F07D01F4AD36943F0080301
:1030A000D3611C4B2022DA601A4BDB6813F0400F0F
:1030B00007D0194AD36943F00403D361154B40226A
:1030C000DA60144BDB6813F0800F07D0124AD36923
:1030D00043F00203D3610F4B8022DA600D4BDB68B3
:1030E00013F4807F08D00C4AD36943F00103D36105
:1030F000084B4FF48072DA60064BDB6813F0020F66
:1031000007D0054AD36943F02003D361014B022263
:10311000DA607047003C024048200020094B1B69E0
:10312000002B01DB00207047064B074A5A6002F172
:1031300088325A601B69002B01DB00207047012098
:10314000704700BF003C024023016745034A1369F2
:1031500043F0004313610020704700BF003C024071
:1031600038B50446144B0022DA6100F0B5FC054680
:10317000124BDB6813F4803F0AD0B4F1FF3FF7D065
:1031800024B100F0A9FC401BA042F1D903200DE0BE
:103190000A4BDB6813F0010F02D0084B0122DA6002
:1031A000064BDB6813F4F97F01D1002038BDFFF72F
:1031B00061FF0120FAE700BF48200020003C0240E8
:1031C000F8B516461B4A127E012A30D004460D4639
:1031D0001F46184B01221A764CF25030FFF7C0FF01
:1031E00090B9ACB1012C18D0022C1BD032463B4612
:1031F0002846FFF7F3FE4CF25030FFF7B1FF0E4ABE
:10320000136923F0010313610A4B00221A76F8BDFB
:10321000F1B22846FFF71EFFEDE7B1B22846FFF7EF
:1032200007FFE8E731462846FFF7F0FEE3E7022014
:10323000EDE700BF48200020003C0240012905D0F6
:10324000022906D039B14FF4407104E04FF4807187
:1032500001E04FF400710B4B1A6922F440721A61BD
:103260001A690A431A611A6922F0F8021A611A6986
:1032700042EAC00040F0020018611A6942F480324C
:103280001A617047003C024000230F2B00F2E380DC
:1032900070B582B065E085684FEA430E032404FAF6
:1032A0000EF425EA0405CC6804FA0EF42C4384607D
:1032B000446824EA02044A68C2F300129A40224396
:1032C00042605CE0DC08083450F8242003F0070575
:1032D000AD004FF00F0E0EFA05FE22EA0E0E0A693F
:1032E000AA4042EA0E0240F824205CE0062200E0F8
:1032F000002202FA0EF22A430234574D45F82420E8
:10330000564A94686FEA0C0224EA0C054E6816F4DB
:10331000801F01D04CEA0405504CA560E46802EA25
:1033200004054E6816F4001F01D04CEA04054B4C0E
:10333000E560646802EA04054E6816F4003F01D0B7
:103340004CEA0405454C6560246822404D6815F43C
:10335000803F01D04CEA0402404C226001330F2B25
:1033600077D801229A400C6804EA020C32EA04047D
:10337000F4D14C6804F00304013C012C8BD94A6859
:1033800002F00302032A09D0C4685D000322AA40A8
:1033900024EA02048A68AA402243C2604A6802F012
:1033A0000302022A8ED004684FEA430E032202FA77
:1033B0000EF224EA02044A6802F0030202FA0EF254
:1033C000224302604A6812F4403FC7D000220192B3
:1033D000234A546C44F480445464526C02F4804296
:1033E0000192019A9C08A51C1B4A52F8255003F033
:1033F000030E4FEA8E0E0F2202FA0EF225EA0205A4
:10340000184A90423FF474AF02F58062904216D0A1
:1034100002F58062904214D002F58062904212D090
:1034200002F58062904210D002F5806290420ED088
:1034300002F5806290423FF459AF072259E701221A
:1034400057E7022255E7032253E7042251E70522FA
:103450004FE702B070BD704700380140003C0140AA
:10346000003802400000024030B405682C6824F4A3
:1034700080242C60046863608368402B05D0036857
:1034800099600368DA6030BC704703689A6003682B
:10349000D960F8E710B40368D9B210390A4AA2FB20
:1034A00001421209094CA25CC2655F2907D96FF37A
:1034B000090304338365806D5DF8044B70476FF337
:1034C00009038365F7E700BFABAAAAAA0471010844
:1034D000836A826992B9012B0AD0022B02D00BB108
:1034E00000207047C36A13F0807F28D10020704706
:1034F000C36AB3F1C07F24D000207047B2F5005FEB
:1035000009D0022B25D9032B25D1C36A13F0807F64
:1035100023D100207047032B03D8DFE803F0140405
:10352000140A00207047C36A13F0807F0DD1002079
:103530007047C36AB3F1C07F09D0002070470120F3
:10354000704701207047012070470120704701201B
:10355000704701207047002070470120704700002D
:1035600070B5044600F0B8FA002C5BD00546022383
:1035700084F83530002384F834302268136823F04F
:103580000103136023681A6812F0010F0AD000F0DB
:10359000A3FA431B052BF5D920236365032084F888
:1035A000350070BD1A68204911406268A068024366
:1035B000E06802432069024360690243A069024354
:1035C000E0690243206A02430A43616A04291ED06B
:1035D0001A602668756925F00705636A1D43042B88
:1035E00007D1A36A1D43E36A1BB12046FFF770FFB2
:1035F00090B975612046FFF74DFFE26D3F23934080
:10360000836000206065012384F83530C9E7E16AF2
:10361000206B01430A43DBE740236365012084F804
:103620003500BEE70120BCE73F8010F038B5044606
:10363000856D90F8340001282BD0012084F83400E7
:1036400094F83500C0B2012804D0002384F8343047
:10365000022038BD022084F8350000206065204635
:10366000FFF702FFE26D3F239340AB6022681368CF
:1036700043F016031360236C23B12268136843F0F0
:10368000080313602268136843F0010313600020ED
:10369000DFE70220DDE770B50446866D00F01CFA16
:1036A00094F83530DBB2022B06D08023636500230B
:1036B00084F83430012070BD05462268136823F079
:1036C000160313602268536923F080035361236C4F
:1036D000E3B12268136823F00803136022681368BB
:1036E00023F00103136023681B6813F0010F11D04E
:1036F00000F0F2F9431B052BF5D920236365032065
:1037000084F83500002384F83430D4E7A36C002B10
:10371000DFD1E3E7E26D3F239340B360012384F8F8
:103720003530002084F83400C5E790F83530DBB23E
:10373000022B03D08023436501207047052380F8C6
:1037400035300268136823F00103136000207047CE
:10375000F0B583B0044600230193724B1D68724B91
:10376000A3FB0535AD0A876D3E68C26D0823934003
:10377000334210D003681A6812F0040F0BD01A6895
:1037800022F004021A60C26D08239340BB60436DAF
:1037900043F001034365E26D01239340334209D0B6
:1037A0002268526912F0800F04D0BB60636D43F051
:1037B00002036365E26D04239340334209D022681B
:1037C000126812F0020F04D0BB60636D43F0040373
:1037D0006365E26D10239340334224D0226812685F
:1037E00012F0080F1FD0BB6023681A6812F4802FF4
:1037F0000DD01B6813F4002F04D1236C9BB120461D
:10380000984710E0A36C73B1204698470BE01A6804
:1038100012F4807F03D11A6822F008021A60236C28
:103820000BB120469847E26D20239340334255D098
:103830002268126812F0100F50D0BB6094F8353037
:10384000DBB2052B0ED023681A6812F4802F33D018
:103850001B6813F4002F2AD1636C002B3ED0204646
:1038600098473BE02268136823F016031360226830
:10387000536923F080035361236CA3B1226813685A
:1038800023F008031360E26D3F239340BB600123E4
:1038900084F83530002384F83430236D002B3FD07A
:1038A000204698473CE0A36C002BE7D1EBE7E36BA5
:1038B000A3B12046984711E01A6812F4807F09D11D
:1038C0001A6822F010021A60012384F835300023B0
:1038D00084F83430E36B0BB120469847636DFBB13D
:1038E000636D13F0010F17D0052384F8353022687B
:1038F000136823F001031360019B01330193AB4272
:1039000004D823681B6813F0010FF5D1012384F854
:103910003530002384F83430E36C0BB120469847EF
:1039200003B0F0BDEC090020B5814E1B82B0044B02
:1039300001221A62034B1B680193019B02B070477E
:1039400000000E4200700040002807DB00F01F025C
:10395000400901239340024A42F82030704700BFDB
:1039600000E100E0002808DB0901C9B200F1604075
:1039700000F5614080F80013704700F00F00090166
:10398000C9B2014B1954704714ED00E000B500F0C6
:103990000700C0F1070CBCF1040F28BF4FF0040C66
:1039A000031D062B0FD9C31E4FF0FF3E0EFA0CF07D
:1039B00021EA000199400EFA03FE22EA0E0241EAD2
:1039C00002005DF804FB0023EEE70000074AD3681D
:1039D00023F4E0631B041B0C000200F4E0600343CB
:1039E00043F0BF6343F40033D360704700ED00E061
:1039F00010B50446054BD868C0F30220FFF7C6FF98
:103A000001462046FFF7AEFF10BD00BF00ED00E00D
:103A100008B5FFF799FF08BD0138B0F1807F0BD2E0
:103A20004FF0E0235861054AF02182F8231000206E
:103A3000986107221A6170470120704700ED00E08D
:103A400010B504460E4B1A784FF47A73B3FBF2F3B9
:103A50000C4A1068B0FBF3F0FFF7DEFF68B90F2CDB
:103A600001D901200AE0002221464FF0FF30FFF784
:103A7000BFFF054B1C60002000E0012010BD00BF0F
:103A8000E5090020EC090020E809002008B50B4BEF
:103A90001A6842F400721A601A6842F480621A606E
:103AA0001A6842F480721A600320FFF78FFF0F201C
:103AB000FFF7C6FFFEF70AFB002008BD003C0240EE
:103AC000034A1168034B1B780B441360704700BF17
:103AD00068200020E5090020014B1868704700BFEE
:103AE0006820002038B50446FFF7F6FF0546B4F11C
:103AF000FF3F02D0044B1B781C44FFF7EDFF401B37
:103B0000A042FAD338BD00BFE50900200048704745
:103B100000020801014B1868000C7047002004E007
:103B2000024B1868C0F30B00704700BF002004E090
:103B300010B4036A046A24F001040462846924F066
:103B4000F00C4CEA021223F00A030B438261036279
:103B50005DF8044B704710B4036A046A24F0100443
:103B60000462846924F4704C4CEA023223F0A0030E
:103B700043EA0113826103625DF8044B7047836876
:103B800023F070030B4343F007038360704700008A
:103B900090F83D30DBB2012B37D1022380F83D3065
:103BA0000268D36843F00103D3600368194A934263
:103BB00020D0B3F1804F1DD0A2F57C42934219D0A2
:103BC00002F58062934215D002F58062934211D0D3
:103BD00002F5784293420DD002F57052934209D01B
:103BE000A2F59432934205D01A6842F001021A609D
:103BF000002070479A6802F00702062A07D01A6868
:103C000042F001021A600020704701207047002036
:103C1000704700BF00000140704770477047704711
:103C200070B504460368DE681D6915F0020F10D0F8
:103C300016F0020F0DD06FF002021A610123037714
:103C400003689B6913F0030F5ED0FFF7E6FF0023C4
:103C5000237715F0040F12D016F0040F0FD023684D
:103C60006FF004021A610223237723689B6913F41F
:103C7000407F4FD02046FFF7D0FF0023237715F079
:103C8000080F12D016F0080F0FD023686FF008024B
:103C90001A61042323772368DB6913F0030F40D0F4
:103CA0002046FFF7BAFF0023237715F0100F12D03C
:103CB00016F0100F0FD023686FF010021A6108235E
:103CC00023772368DB6913F4407F31D02046FFF768
:103CD000A4FF0023237715F0010F02D016F0010F87
:103CE0002DD115F0800F02D016F0800F2FD115F0D6
:103CF000400F02D016F0400F31D115F0200F02D046
:103D000016F0200F33D170BDFFF786FF2046FFF776
:103D100085FF9CE72046FFF77FFF2046FFF77EFFE9
:103D2000ABE72046FFF778FF2046FFF777FFBAE7BB
:103D30002046FFF771FF2046FFF770FFC9E72368B1
:103D40006FF001021A612046FDF784F8C9E7236885
:103D50006FF080021A61204600F07DF9C7E7236802
:103D60006FF040021A612046FFF759FFC5E723684C
:103D70006FF020021A61204600F06CF9C3E70000E2
:103D80000368344A904212D0B0F1804F0FD0A2F5B0
:103D90007C4290420BD002F58062904207D002F53F
:103DA0008062904203D002F57842904203D123F022
:103DB00070034A681343274A90422AD0B0F1804FDB
:103DC00027D0A2F57C42904223D002F58062904237
:103DD0001FD002F5806290421BD002F578429042DB
:103DE00017D002F57052904213D002F580629042D3
:103DF0000FD002F5806290420BD0A2F5983290422B
:103E000007D002F58062904203D002F580629042B2
:103E100003D123F44073CA68134323F080034A6933
:103E2000134303608B68C3620B688362094B98423B
:103E300003D003F58063984201D10B69036301232A
:103E40004361036913F0010F03D0036923F00103F9
:103E5000036170470000014040B310B5044690F87C
:103E60003D30F3B1022384F83D30214651F8040B74
:103E7000FFF786FF012384F8463084F83E3084F84B
:103E80003F3084F8403084F8413084F8423084F880
:103E9000433084F8443084F8453084F83D300020C5
:103EA00010BD80F83C30FEF7B3F9DBE70120704726
:103EB00010B4846824F47F4C42EA03220A4342EAA5
:103EC0000C0282605DF8044B704790F83C30012B87
:103ED00078D010B50446012380F83C30022380F8E6
:103EE0003D300268936823F47F4323F077039360A7
:103EF0000B68602B4CD023D8402B54D011D8202BEA
:103F000003D00AD80BB1102B05D119462068FFF752
:103F100036FE002028E0012026E0302BF5D00120DD
:103F200022E0502B0AD1CA6849680068FFF700FEFA
:103F300050212068FFF723FE002015E0012013E048
:103F4000B3F5805F3AD0B3F5005F14D0702B37D152
:103F5000CB684A6889680068FFF7AAFF22689368FF
:103F600043F0770393600020012384F83D30002361
:103F700084F83C3010BDCB684A6889680068FFF758
:103F800097FF2268936843F4804393600020EBE737
:103F9000CA6849680068FFF7DEFD60212068FFF706
:103FA000EEFD0020E0E7CA6849680068FFF7C0FD41
:103FB00040212068FFF7E3FD0020D5E70020D3E78C
:103FC0000120D1E70220704790F83C20012A3DD023
:103FD00010B40346012280F83C20022280F83D20E4
:103FE00002685068946820F0700C086840EA0C0081
:103FF00050601A68164882421AD0B2F1804F17D02A
:10400000A0F57C40824213D000F5806082420FD040
:1040100000F5806082420BD000F57840824207D0E4
:1040200000F57050824203D0A0F59430824204D152
:1040300024F08004496821439160012283F83D20E7
:10404000002083F83C005DF8044B70470220704765
:104050000000014070477047034AD2F8883043F4AB
:104060007003C2F88830704700ED00E0026802F18A
:104070000C0353E8003F23F0C0030C3242E8003148
:104080000029F3D1202380F841307047026802F103
:104090000C0353E8003F23F490730C3242E80031E4
:1040A0000029F3D1026802F1140353E8003F23F022
:1040B0000103143242E800310029F3D1036B012BD4
:1040C00005D0202380F84230002303637047026844
:1040D00002F10C0353E8003F23F010030C3242E8D6
:1040E00000310029F3D1ECE790F84130DBB2212B0D
:1040F00001D0022070478368B3F5805F17D0036A50
:104100005A1C02621A7803685A60C38C9BB2013B46
:104110009BB2C3844BB90268D36823F08003D36099
:104120000268D36843F04003D360002070470369FE
:10413000002BE4D1036A1B880268C3F308035360B1
:10414000036A02330362E0E710B5044602681369AC
:1041500023F44053C1680B431361836802691A4317
:1041600043691A43C3691A430168CB6823F41643B1
:1041700023F00C031343CB600268536923F44073AC
:1041800081690B4353610368314A934206D002F5BB
:104190008062934202D0FEF7DDF901E0FEF7EAF912
:1041A000E369B3F5004F29D00021031849411B18DA
:1041B00041F10001C90041EA5371DB00181863683E
:1041C0004FEA83024FEA937341F10001FCF76CFD63
:1041D000204AA2FB00314909642303FB11031B01A0
:1041E0003233A2FB03235B0903F0F00202EB01125E
:1041F00003F00F03216813448B6010BD00230218E5
:1042000043EB0301121841F10001C90041EA527168
:10421000D200101841F10001626892185B41FCF76E
:1042200043FD0C4AA2FB00314909642303FB11033F
:10423000DB003233A2FB03235B095A0002F4F8725D
:1042400002EB011203F00703216813448B60D4E7EB
:10425000001001401F85EB512DE9F04383B0054666
:104260000E4617469946DDF828802B681C6836EA0A
:1042700004040CBF01240024BC4228D1B8F1FF3F44
:10428000F3D0FFF729FCA0EB0900404523D8B8F193
:10429000000F22D02B68DA6812F0040FE5D0802ED0
:1042A000E3D0402EE1D01A6812F0080FDDD00024D0
:1042B00001941A6801925B680193019B2846FFF7FD
:1042C000E5FE08236B6485F84040012000E00020F3
:1042D00003B0BDE8F0830320FAE70320F8E760B3FA
:1042E00010B5044690F8413013B3242384F84130CC
:1042F0002268D36823F40053D3602046FFF724FFDD
:104300002268136923F4904313612268536923F0F0
:104310002A0353612268D36843F40053D36000201A
:104320006064202384F8413084F84230606310BD1B
:1043300080F84030FDF7A6FFD7E7012070472DE950
:10434000F04182B01E4690F84130DBB2202B56D1AE
:1043500004460D469046002955D00AB901204FE089
:1043600000234364212380F84130FFF7B5FB074663
:10437000A4F82480A4F82680A368B3F5805F02D057
:104380004FF0000814E023692BB34FF000080FE052
:10439000202384F84130032032E038F8023B2268C1
:1043A000C3F308035360E28C92B2013A92B2E28402
:1043B000E38C9BB293B100963B46002280212046BD
:1043C000FFF74AFF0028E3D1002DE6D015F8012BB6
:1043D00023685A60E7E7A8460025E9E700963B46D0
:1043E000002240212046FFF737FF18B9202384F828
:1043F000413005E0202384F84130032000E0022012
:1044000002B0BDE8F0810120FAE7000038B513469C
:1044100090F84120D2B2202A2FD1044600292ED074
:104420000BB9012038BD01628384C3840022426439
:10443000212084F84100A06B124DC563A06B124D82
:104440000564A06B114DC564A06B0265226804323F
:10445000A06BFFF7EBF823686FF040021A60226848
:1044600002F1140353E8003F43F08003143242E8A2
:1044700000310029F3D10020D4E70220D2E7012047
:10448000D0E700BF91440008F94400080745000840
:1044900008B50346806B1B681B6813F4807F1AD134
:1044A0000023C384026802F1140353E8003F23F0A1
:1044B0008003143242E800310029F3D1026802F18E
:1044C0000C0353E8003F43F040030C3242E8003154
:1044D0000029F3D108BD03F095FDFBE708B501689D
:1044E000CA6822F04002CA60202280F8412003F00E
:1044F00089FD002008BD704708B5806BFFF7FBFF02
:1045000008BD7047704710B5846B23685A6994F8EA
:104510004130DBB2212B10D023685A6902F04002EF
:1045200094F84230DBB2222B11D0636C43F01003BD
:1045300063642046FFF7E6FF10BD02F08002002A08
:10454000EAD00023E3842046FFF790FDE4E7002A49
:10455000EBD00023E3852046FFF798FDE5E708B59B
:10456000806B0023C385C384FFF7CCFF08BD704771
:1045700090F84230DBB2222B69D18368B3F5805FBB
:104580004FD0826AB3F5805F04D0002B56D1036907
:10459000002B53D103685B681370836A0133836215
:1045A000C38D9BB2013B9BB2C385002B51D100B59B
:1045B00083B00268D36823F02003D3600268D36815
:1045C00023F48073D3600268536923F001035361BD
:1045D000202380F8423000234363036B012B33D147
:1045E00000230363026802F10C0353E8003F23F049
:1045F00010030C3242E800310029F3D103681A6835
:1046000012F0100F06D0002201921A6801925B6826
:104610000193019B818DFFF7AAFF002003B05DF895
:1046200004FB0269002AACD1826A03685B68C3F3A9
:1046300008031380836A02338362B1E703685B680F
:1046400003F07F031370A8E7FFF75BFFE5E70220A5
:10465000704700207047000010B582B00446026821
:104660001368D068516913F00F0F09D113F0200FB0
:104670000CD010F0200F09D02046FFF779FF16E08C
:1046800011F0010115D110F4907F12D1216B012995
:1046900079D013F0800F03D010F0800F40F0148118
:1046A00013F0400F03D010F0400F40F0118102B022
:1046B00010BD13F0010F06D010F4807F03D0626CA0
:1046C00042F00102626413F0040F04D019B1626C6D
:1046D00042F00202626413F0020F04D019B1626C5E
:1046E00042F00402626413F0080F07D010F0200FAC
:1046F00000D119B1626C42F008026264626C002A57
:10470000D5D013F0200F02D010F0200F29D123684C
:104710005B6903F04003626C12F0080F00D163B3D1
:104720002046FFF7B3FC23685B6913F0400F20D0ED
:10473000226802F1140353E8003F23F040031432CF
:1047400042E800310029F3D1E36B73B1624A1A6584
:10475000E06BFEF7EAFF0028A9D0E06B036D9847F5
:10476000A5E72046FFF704FFD1E72046FFF7CAFE82
:104770009DE72046FFF7C6FE99E72046FFF7C2FEF9
:104780000023636493E713F0100F82D010F0100F32
:104790003FF47FAF002301931368019353680193A3
:1047A000019B536913F0400F52D0E26B13685B68B2
:1047B0009BB2002B3FF47BAFA18D99427FF677AF80
:1047C000E385D369B3F5807F37D0226802F10C030B
:1047D00053E8003F23F480730C3242E80031002993
:1047E000F3D1226802F1140353E8003F23F00103E0
:1047F000143242E800310029F3D1226802F1140397
:1048000053E8003F23F04003143242E8003100290E
:10481000F3D1202384F8423000232363226802F17D
:104820000C0353E8003F23F010030C3242E8003140
:104830000029F3D1E06BFEF72EFF02236363A18D05
:10484000E38D9BB2C91A89B22046FFF790FE2EE78E
:10485000A18DE38D9BB2C91A89B2E38D9BB2002B67
:104860003FF425AF00293FF422AF226802F10C0388
:1048700053E8003F23F490730C3242E800300028E4
:10488000F3D1226802F1140353E8003F23F001033F
:10489000143242E800300028F3D1202384F842305B
:1048A00000232363226802F10C0353E8003F23F046
:1048B00010030C3242E800300028F3D10223636376
:1048C0002046FFF754FEF2E62046FFF70DFCEEE629
:1048D0002046FFF703FEEAE65F45000808B5FCF74F
:1048E000FBFBFCF77BFE08BD4A4B5A6822F44032C2
:1048F0005A605A6841680A435A600268536823F450
:104900008073536002685368016943EA012353606E
:104910000268536823F040735360026853688168EB
:104920000B4353600268936823F40063936002684A
:104930009368C1680B439360826A374B9A4257D0A1
:104940000268936823F07063936002689368816AD9
:104950000B4393600268936823F0405393600268AE
:104960009368C16A0B4393600268936823F0020363
:10497000936002689368017E43EA4103936090F874
:104980002030002B3FD00268536843F4006353602B
:104990000268536823F46043536001684B68426ABD
:1049A000013A43EA42334B600268D36A23F470034E
:1049B000D3620168CB6AC269013A43EA0253CB620F
:1049C0000268936823F4007393600268936890F818
:1049D000301043EA412393600268936823F48063B4
:1049E000936002689368416943EA8123936070474A
:1049F0000268936823F0706393600268936823F001
:104A000040539360B0E70268536823F40063536037
:104A1000CAE700BF002301400100000F38B310B502
:104A20000446036C43B1236C13F0100F0BD001202C
:104A3000002384F83C3010BDFDF764FB0023636461
:104A400084F83C30EFE7236C23F4885323F002030F
:104A500043F0020323642046FFF746FF0020606412
:104A6000236C23F0030343F001032364E0E70120F8
:104A70007047000010B582B013460022019290F8F2
:104A80003C20012A00F0AE800446012280F83C2040
:104A90000268906810F0010F13D1906840F0010097
:104AA0009060534A1068534AA2FB0020800C00EB30
:104AB0004000019002E0019801380190019800281F
:104AC000F9D12268906810F4807F03D0906820F4B8
:104AD000807090602268906810F0010F77D0206C91
:104AE00020F4E06020F0010040F4807020645268FF
:104AF00012F4806F05D0226C22F4405242F48052AE
:104B00002264226C12F4805F36D0626C22F00602BE
:104B10006264002284F83C20A26B3748D063A26B09
:104B200036481064A26B3648D06422686FF02200C9
:104B300010602068426842F08062426020688268AB
:104B400042F48072826020680A4600F14C01A06B3A
:104B5000FEF76CFD2B4B5B6813F01F0F27D123680A
:104B6000294A934211D002F58072934207D0274A16
:104B7000934214D0002033E000226264C9E702F5BA
:104B80000072526812F01F0FF1D19A6812F0405F64
:104B90002AD19A6842F080429A60002020E002F513
:104BA0008072526812F0100FEFD0002018E02368D6
:104BB000154A934201D0002012E09A6812F0405F3B
:104BC00014D19A6842F080429A60002008E0236C79
:104BD00043F010032364636C43F00103636400201B
:104BE00002B010BD0220FBE70020F9E70020F7E744
:104BF000EC09002083DE1B43794D0008134C0008AC
:104C0000634D0008002301400020014000220140C4
:104C1000704708B5806BFFF7FBFF08BD7047704712
:104C200070B5044603681E685D6816F0020F2FD049
:104C300005F0200262B3026C12F0100F03D1026C77
:104C400042F4007202649A6812F0405F19D1227E29
:104C5000BAB9DA6A12F4700F03D09A6812F4806F4E
:104C60000FD15A6822F020025A60236C23F480731B
:104C70002364236C13F4805F03D1236C43F001039E
:104C800023642046FCF7CCF823686FF012021A6008
:104C900005F0800316F0040F37D0002B35D0236CBD
:104CA00013F0100F03D1236C43F4005323642368E3
:104CB0009A6812F4401F21D19A6B12F4401F03D05E
:104CC0009A6812F4806F19D15A6812F4806F15D166
:104CD0009A6812F0405F11D1227E7AB95A6822F0A8
:104CE00080025A60236C23F480532364236C13F4F2
:104CF000807F03D1236C43F001032364204600F03E
:104D00004BF923686FF00C021A6005F0400316F0AF
:104D1000010F05D023B123681B6813F0010F06D1E2
:104D200005F0806516F0200F00D065B970BD236CCA
:104D300043F4803323642046FFF770FF23686FF04D
:104D400001021A60ECE7636C43F0020363642368BA
:104D50006FF020051D602046FFF761FF23681D608E
:104D6000E4E708B5806B40230364436C43F004031D
:104D70004364FFF754FF08BD08B50346806B026C1F
:104D800012F0500F25D1036C43F4007303640368E1
:104D90009A6812F0405F19D1027EBAB9DA6A12F449
:104DA000700F03D09A6812F4806F0FD15A6822F006
:104DB00020025A60036C23F480730364036C13F4C1
:104DC000805F03D1036C43F001030364FCF728F810
:104DD00008BD026C12F0100F04D1826BD26C184621
:104DE0009047F5E7FFF71BFFF2E7000030B482B011
:104DF0000022019290F83C20012A00F0C080034676
:104E0000012280F83C200A68092A40D90468E06839
:104E100092B202EB42021E3A4FF0070C0CFA02F279
:104E200020EA0202E2601C68E0680A8802EB4202A3
:104E30001E3A8D6805FA02F20243E2604A68062AC9
:104E40003CD81C68606B02EB8202053A4FF01F0CE5
:104E50000CFA02F220EA020262631C68606B4A6884
:104E600002EB8202053AB1F800C00CFA02F20243EA
:104E700062631868434A904250D01868414A904291
:104E800059D0002083F83C0002B030BC7047046861
:104E9000206992B202EB42024FF0070C0CFA02F2C8
:104EA00020EA020222611C6820690A8802EB4202A1
:104EB0008D6805FA02F202432261BFE70C2A16D878
:104EC0001D68286B02EB8202233A1F2404FA02F2C7
:104ED00020EA02022A631D68286B4A6802EB8202FC
:104EE000233A0C8804FA02F202432A63C1E71D68E0
:104EF000E86A02EB8202413A1F2404FA02F220EA35
:104F00000202EA621D68E86A4A6802EB8202413ADC
:104F10000C8804FA02F20243EA62AAE70A68122A3B
:104F2000ABD1194A506820F400005060506840F43A
:104F300080005060A1E70A681448824201D0112A1B
:104F40009FD1114A506820F480005060506840F4AE
:104F50000000506009680D4A914292D10C4A1268D3
:104F60000C49A1FB0212920C02EB82025200019248
:104F7000019A002A85D0019A013A0192F8E70220AD
:104F800082E700BF00200140002301401200001012
:104F9000EC09002083DE1B43704798B108B5034637
:104FA0000020C3F8B802C3F8C402C3F8D00209B1A4
:104FB000C3F8B412012183F89C121A70184602F04B
:104FC0004BFD08BD0320704710B582B00023ADF83B
:104FD0000630B9B10446C0F8B812D0F8D422CB6A72
:104FE00043B1AE3250F82230DB6A0DF1060098472B
:104FF000C4F8D002D4F8D8320133C4F8D832002033
:1050000002B010BD0320FBE708B502F0AEFD08BDFD
:1050100008B5D0F8B83213B11B68984708BD002016
:10502000FCE708B5D0F8B8325B68984700B908BD0E
:105030000320FCE738B5044600F2AA25284600F014
:10504000A2F90123C4F89432B4F8B032C4F898320B
:1050500094F8AA1201F01F03012B07D0022B0AD0EB
:1050600073B92946204600F075FB38BD2946204615
:1050700000F0ABFBF9E72946204600F0E8FBF4E737
:1050800001F08001204602F08BFDEEE7F8B5044602
:10509000012380F89C320023C0F894324360C0F8AA
:1050A000A43280F8A032D0F8B832DBB15B68DBB153
:1050B000002198470746C8B94023002211462046E0
:1050C00002F05BFD0126A4F864614025C4F860513C
:1050D0002B4600228021204602F04FFDA684256247
:1050E0003846F8BD0027E7E70027E5E70327E3E7B1
:1050F00001740020704790F89C32DBB2042B04D07E
:1051000090F89C32DBB280F89D32042380F89C3208
:105110000020704790F89C32DBB2042B01D00020B5
:10512000704790F89D32DBB280F89C32F7E708B503
:1051300090F89C32DBB2032B01D0002008BDD0F8E0
:10514000B832002BF9D0DB69002BF6D09847F4E792
:1051500008B5D0F8D432AE3350F823205AB190F8C5
:105160009C32DBB2032B01D0002008BD136A23B1AF
:1051700098470020F9E70320F7E70020F5E708B596
:10518000D0F8D432AE3350F823205AB190F89C3284
:10519000DBB2032B01D0002008BD536A23B198472E
:1051A0000020F9E70320F7E70020F5E7002070472B
:1051B00008B5012380F89C32D0F8B83223B15B687F
:1051C0000179984710B908BD0020FCE70320FAE7F1
:1051D000002070470020704738B504460D4600296E
:1051E00042D11346D0F89422032A01D0084638BD94
:1051F000D0F85C11D0F86021914209D890F8AA3219
:1052000003F01F03012B0ED0022B1BD028460FE00A
:10521000891AC0F85C118A4228BF0A46194600F074
:1052200060FC2846E3E790F8AE12FFF7D1FF20B903
:1052300094F89C32DBB2032B09D0204600F059FCD5
:105240002846D4E790F8AE12FFF7C4FFEFE700F16D
:10525000AE0354F823301A69002AEED0C4F8D40201
:105260001B6920469847E8E701F07F01FFF7B2FF8E
:1052700090B994F89C32DBB2032BB8D100F1AE03A5
:1052800054F823309A69002AB1D0C4F8D4029B693B
:10529000294620469847AAE70020A8E738B50446E3
:1052A0000D4600294BD11346D0F89422022A07D08C
:1052B00094F8A00218B1002384F8A032284638BD23
:1052C000C269016A8A420ED88A4218D094F89C3288
:1052D000DBB2032B27D08021204602F061FC204660
:1052E00000F012FCE4E7521AC261194600F0F1FB2B
:1052F00000231A461946204602F072FCD8E783695B
:105300009942E3D8D0F898229342DFD20022114686
:1053100000F0DFFB0021C4F898120B460A46204635
:1053200002F05EFCC4E7D4F8B832DA68002AD2D0C2
:105330000022C4F8D422DB6820469847CBE741F02E
:105340008001FFF747FF90B994F89C32DBB2032B42
:10535000B5D100F1AE0354F823305A69002AAED01B
:10536000C4F8D4025B69294620469847A7E7002085
:10537000A5E70346002002E00130C0B201331A78ED
:10538000002AF9D170470B7803704B7843708B7803
:10539000CA7843EA022343800B794A7943EA02231D
:1053A00083808B79CA7943EA0223C380704710B5A2
:1053B0000446802102F0F4FB0021204602F0F0FBBD
:1053C00010BD30B583B004460D460023ADF806305D
:1053D0004A88130A013B0E2B00F2BC80DFE803F081
:1053E000153044BABA9EABBABABABABABABA080059
:1053F000D0F8B432DB6923B10DF10601007C984787
:105400000AE02946FFF7D3FF18E0D0F8B4321B6852
:105410000DF10601007C9847EA88002A00F0A3807D
:10542000BDF80630002B00F099809A4228BF1A463A
:10543000ADF806200146204600F03EFB03B030BD2B
:10544000037C43B9D0F8B8329B6A0DF10600984747
:1054500002234370E0E7D0F8B832DB6A0DF10600B2
:10546000984702234370D7E7D2B2052A52D8DFE823
:1054700002F003101D2A3744D0F8B4325B6823B120
:105480000DF10601007C9847C6E72946FFF78FFF1C
:10549000D4E7D0F8B4329B6823B10DF10601007C4B
:1054A0009847B9E72946FFF782FFC7E7D0F8B4323B
:1054B000DB6823B10DF10601007C9847ACE7294673
:1054C000FFF775FFBAE7D0F8B4321B6923B10DF1CD
:1054D0000601007C98479FE72946FFF768FFADE784
:1054E000D0F8B4325B6923B10DF10601007C984716
:1054F00092E72946FFF75BFFA0E7D0F8B4329B693B
:1055000023B10DF10601007C984785E72946FFF796
:105510004EFF93E72946FFF74AFF8FE7037C33B935
:10552000D0F8B8325B6B0DF10600984774E7294656
:10553000FFF73DFF82E7037C43B9D0F8B8321B6B1D
:105540000DF1060098470723437065E72946FFF7EA
:105550002EFF73E72946FFF72AFF6FE7294620460B
:10556000FFF725FF6AE7204600F0C3FA66E738B583
:1055700004468B88FBB9CB88EBB94B887F2B1AD8B4
:1055800003F07F0590F89C32DBB2032B0CD080F83F
:105590009E52294602F014FB204600F0AAFA35B1CB
:1055A000022384F89C3209E0FFF701FF06E00123A3
:1055B00084F89C3202E02046FFF7F9FE38BD000077
:1055C00070B504460E468D782F4B1D70012D10D8F6
:1055D00090F89C32DBB2022B0FD0032B26D0FFF7C2
:1055E000E6FE294B19782046FFF71BFD03252846C8
:1055F00070BDFFF7DCFE0325F9E7A5B1456029463C
:10560000FFF706FD054638B131462046FFF7CFFECD
:10561000022384F89C32EAE7204600F06AFA03236A
:1056200084F89C32E3E700F064FAE0E7CDB141682A
:105630008D4225D0C9B2FFF7F4FC134B1978616095
:105640002046FFF7E5FC0546B0B131462046FFF79E
:10565000AEFE21792046FFF7E4FC022384F89C3259
:10566000C5E7022380F89C3245602946FFF7D9FC44
:10567000204600F03EFABAE7204600F03AFAB6E7D4
:1056800000F037FA0025B2E76C20002008B5CB887F
:10569000012B0BD190F89C32DBB2022B09D9032BE2
:1056A00011D10122011D00F007FA01E0FFF77FFE92
:1056B00008BD5BB23BB10146002341F8083F01221F
:1056C00000F0FAF9F4E7FFF772FEF1E708B590F899
:1056D0009C32013B022B12D8CB88022B0CD1002329
:1056E000C360D0F8A4320BB10223C360022200F1E0
:1056F0000C0100F0E1F908BDFFF759FEFBE7FFF7E9
:1057000056FEF8E708B54B88012B04D0022B07D0D2
:10571000FFF74DFE08BDC0F8A43200F0EAF9F9E742
:105720008B881B0A80F8A03200F0E3F9F2E708B595
:1057300090F89C32013B022B09D84B88012B00D0FA
:1057400008BD0023C0F8A43200F0D3F9F8E7FFF752
:105750002EFEF5E738B50C7804F06004202C06D056
:10576000402C04D06CB1FFF722FE002407E0D0F8F3
:10577000D432AE3350F823309B6898470446204615
:1057800038BD4D78092D1DD8DFE805F012191C161B
:105790001C08051C0F0BFFF714FEF0E7FFF7E7FEF0
:1057A000EDE7FFF70DFF0446E9E7FFF76FFFE6E7D8
:1057B000FFF78CFF2C46E2E7FFF7A4FFDFE7FFF7D8
:1057C000B6FFDCE7FFF7F3FDD9E770B505460C46F9
:1057D0000B7803F06003202B07D0402B05D023B1BA
:1057E000FFF7E5FD0026304670BD95F89C32013B81
:1057F000022B26D82179012905D921462846FFF711
:10580000D6FD0026EFE72846FFF7E2FC68B900F175
:10581000AE0255F82220916889B1C5F8D402936888
:10582000214628469847064600E00326E388002BD9
:10583000D9D1002ED7D1284600F05BF9D3E7032653
:10584000F4E721462846FFF7B2FD0026CBE72DE915
:10585000F04106460D468B88DFB20C7804F06004F8
:10586000202C08D0402C06D0DCB1FFF7A0FD00248E
:105870002046BDE8F08139463046FFF7ABFC0446D0
:10588000002840F0F880C6F8D40200F1AE0356F8C4
:1058900023309B68002BEBD02946304698470446BE
:1058A000E6E791F80180B8F1010F31D0B8F1030FAC
:1058B00005D0B8F1000F67D0FFF779FDD8E790F871
:1058C0009C32DBB2022B04D0032B12D0FFF76FFD0A
:1058D000CEE70FB1802F04D129463046FFF767FD90
:1058E000C6E7394602F05CF98021304602F058F9EB
:1058F000BEE74B8823B91FB1802F01D0CB881BB1E5
:10590000304600F0F6F8B3E7394602F049F9F7E718
:1059100090F89C32DBB2022B04D0032B12D0FFF79D
:1059200046FDA5E70FB1802F04D129463046FFF789
:105930003EFD9DE7394602F033F98021304602F002
:105940002FF995E74B88002B92D117F07F0F17D1D5
:10595000304600F0CEF839463046FFF73BFC0028D1
:1059600086D1C6F8D40200F1AE0256F82220926821
:10597000002A00F08280294630469047044677E7A7
:10598000394602F015F9E3E790F89C22D2B2022AD8
:1059900005D0032A27D0FFF70AFD444668E70FB178
:1059A000802F13D113F0800F14D107F07F0707EB7E
:1059B0008707B90001F5A8713144043100230B6059
:1059C0000222304600F078F8444651E7FFF7EFFC3A
:1059D00044464DE707F07F0707EB8707B900103112
:1059E00031440431EAE75BB2002B1FDB07F00F0202
:1059F00002EB820200EB8202B2F864211AB3002BA0
:105A000025DB07F07F0303EB83039C0004F5A874F8
:105A1000344404340FB1802F22D1002323600222AA
:105A20002146304600F048F8444621E707F00F02CF
:105A300002EB820200EB8202928C002ADFD1FFF798
:105A4000B6FC444614E7FFF7B2FC444610E707F003
:105A50007F0303EB83039C00103434440434D9E700
:105A60003946304602F02CF810B101232360D6E706
:105A700000232360D3E70024FAE60446F8E6D0B119
:105A800070B50D4616460446FFF773FC431C5B00D9
:105A90009BB233802B7003236B70022307E0EA5420
:105AA00001345A1CD2B20021A9540233DBB222784D
:105AB000002AF4D170BD704708B513460222C0F821
:105AC00094228361C3610A46002102F081F800201C
:105AD00008BD08B513460A46002102F079F80020F7
